:100000000C9462000C94D2040C94AB040C948A00FF
:100010000C948A000C948A000C948A000C948A0038
:100020000C948A000C948A000C948A000C948A0028
:100030000C948A000C948A000C948A000C948A0018
:100040000C9461040C948A000C942F040C94090401
:100050000C948A000C948A000C948A000C948A00F8
:100060000C94F9040C948A0000000000240027007E
:100070002A0000000000250028002B0000000000DE
:1000800023002600290004040404040404040202DA
:100090000202020203030303030301020408102007
:1000A0004080010204081020010204081020000012
:1000B0000008000201000003040700000000000027
:1000C0000000230611241FBECFEFD8E0DEBFCDBF56
:1000D00011E0A0E0B1E0EEE9F9E102C005900D9277
:1000E000AC3AB107D9F723E0ACEAB1E001C01D9208
:1000F000AC3AB207E1F710E0C2E6D0E004C02197C5
:10010000FE010E94D809C136D107C9F70E945C06DA
:100110000C94CD0C0C940000CF92DF92EF92FF92E2
:100120000F931F93CF93DF936C017A018B01C0E093
:10013000D0E0CE15DF0581F0D8016D918D01D6019B
:10014000ED91FC910190F081E02DC6010995892B7C
:1001500011F02196EECF7E01C701DF91CF911F9163
:100160000F91FF90EF90DF90CF900895FC01538D99
:10017000448D252F30E0842F90E0821B930B541781
:1001800010F0CF96089501970895FC01918D828D0E
:10019000981761F0828DDF01A80FB11D5D968C91DB
:1001A000928D9F5F9F73928F90E008958FEF9FEFE6
:1001B0000895FC01918D828D981731F0828DE80FA2
:1001C000F11D858D90E008958FEF9FEF0895FC015C
:1001D000918D228D892F90E0805C9F4F821B910929
:1001E0008F739927089583E093E00E94E70021E050
:1001F000892B09F420E0822F0895FC01848DDF0112
:10020000A80FB11DA35ABF4F2C91848D90E0019689
:100210008F739927848FA689B7892C93A089B18978
:100220008C91837080648C93938D848D981306C019
:100230000288F389E02D80818F7D80830895EF927D
:10024000FF920F931F93CF93DF93EC0181E0888F90
:100250009B8D8C8D981305C0E889F989808185FD77
:1002600026C0F62E0B8D10E00F5F1F4F0F73112766
:10027000E02E8C8DE8120CC00FB607FCFACFE8898F
:10028000F989808185FFF5CFCE010E94FD00F1CF75
:100290008B8DFE01E80FF11DE35AFF4FF0829FB7EF
:1002A000F8940B8FEA89FB89808180620AC09FB72E
:1002B000F894EE89FF896083E889F98980818370E9
:1002C000806480839FBF81E090E0DF91CF911F9198
:1002D0000F91FF90EF900895CF93DF93EC01888DFD
:1002E0008823C9F0EA89FB89808185FD05C0A8893A
:1002F000B9898C9186FD0FC00FB607FCF5CF8081C0
:1003000085FFF2CFA889B9898C9185FFEDCFCE0109
:100310000E94FD00E7CFDF91CF91089580E090E04B
:10032000892B29F00E94F30081110C94000008959C
:10033000833081F028F4813099F08230A1F0089563
:100340008730A9F08830B9F08430D1F480918000F2
:100350008F7D03C0809180008F7780938000089507
:1003600084B58F7702C084B58F7D84BD0895809158
:10037000B0008F7703C08091B0008F7D8093B00074
:100380000895CF93DF93282F30E0F901E255FF4F16
:100390008491F901E656FF4FD491F901EA57FF4FD6
:1003A000C491CC2391F081110E949801EC2FF0E0D0
:1003B000EE0FFF1FE458FF4FA591B491EC91ED2390
:1003C00081E090E021F480E002C080E090E0DF91E5
:1003D000CF9108951F93CF93DF93282F30E0F90139
:1003E000E255FF4F8491F901E656FF4FD491F90190
:1003F000EA57FF4FC491CC23C1F0162F81110E9400
:100400009801EC2FF0E0EE0FFF1FEE58FF4FA59183
:10041000B4919FB7F894111104C08C91D095D82352
:1004200002C0EC91DE2BDC939FBFDF91CF911F9137
:100430000895CF93DF9390E0FC01E656FF4F24919F
:10044000FC01EA57FF4F8491882361F190E0880F07
:10045000991FFC01E859FF4FC591D491FC01EE585A
:10046000FF4FA591B491611109C09FB7F89488819D
:10047000209582238883EC912E230BC0623061F497
:100480009FB7F8948881322F309583238883EC912D
:100490002E2B2C939FBF06C08FB7F894E8812E2B8C
:1004A00028838FBFDF91CF9108951F93CF93DF9360
:1004B000182FEB0161E00E941902209711F460E00F
:1004C00004C0CF3FD10539F461E0812FDF91CF9196
:1004D0001F910C94EA01E12FF0E0E255FF4FE49107
:1004E000E330F9F048F4E130B9F0E230A1F584B539
:1004F000806284BDC8BD34C0E730E9F0E83019F14E
:10050000E43049F580918000806280938000D09330
:100510008B00C0938A0024C084B5806884BDC7BDA9
:100520001FC080918000806880938000D0938900F4
:10053000C093880015C08091B00080688093B0009F
:10054000C093B3000DC08091B00080628093B00072
:10055000C093B40005C0C038D1050CF0B5CFAFCF03
:10056000DF91CF911F9108953FB7F89480911E02BB
:1005700090911F02A0912002B091210226B5A89B64
:1005800005C02F3F19F00196A11DB11D3FBFBA2F25
:10059000A92F982F8827820F911DA11DB11DBC0185
:1005A000CD0142E0660F771F881F991F4A95D1F74A
:1005B00008958F929F92AF92BF92CF92DF92EF9267
:1005C000FF920E94B4024B015C0182E3C82ED12C41
:1005D000E12CF12C0E94B402DC01CB0188199909AD
:1005E000AA09BB09883E9340A105B10598F321E013
:1005F000C21AD108E108F10888EE880E83E0981E3F
:10060000A11CB11CC114D104E104F10419F7FF903D
:10061000EF90DF90CF90BF90AF909F908F90089514
:100620002FB7F89460911A0270911B0280911C02FE
:1006300090911D022FBF0895089585ED8093BC0011
:100640008091BC0084FDFCCF1092F301089540918D
:10065000CF01262F30E0240F311D21323105DCF48B
:100660002091F3012430C9F4FC0180E090E086176A
:1006700058F43091CF012191DC01A155BE4FA30F59
:10068000B11D2C930196F3CF8091CF01680F609339
:10069000CF0180E0089581E0089582E008950895F3
:1006A0008FEF9FEF08958FEF9FEF08958091AE0138
:1006B00090E09195819591090895CF93DF93CB01B7
:1006C000EA01642F0E942703CE01DF91CF910895A4
:1006D000CF93DF931F92CDB7DEB7698361E0CE0180
:1006E00001960E94270381E090E00F90DF91CF9167
:1006F0000895089580E090E008951F93CF93DF93CD
:1007000011E010932C020E94100360932802709352
:10071000290280932A0290932B0283E00E94C10158
:10072000EC018091AD01811118C0C130D105A9F44F
:1007300085E00E94C1019C019091220221153105A2
:1007400029F4992351F01092220207C0213031057B
:1007500021F4911102C010932202C093AD012091A7
:1007600022028091240290912502211102C001965B
:1007700001C001979093250280932402DF91CF91CD
:100780001F9108951F93CF93DF9311E010932C02D4
:100790000E941003609328027093290280932A021A
:1007A00090932B0282E00E94C101EC018091AC0188
:1007B000811118C0C130D105A9F484E00E94C101A3
:1007C0009C01909123022115310529F4992351F0C0
:1007D0001092230207C02130310521F4911102C08B
:1007E00010932302C093AC01209123028091260232
:1007F00090912702211102C0019601C001979093A8
:10080000270280932602DF91CF911F9108950E94C5
:10081000DE091F920F920FB60F9211242F933F9370
:100820004F935F936F937F938F939F93AF93BF93F8
:10083000EF93FF9383E093E00E94FD00FF91EF911F
:10084000BF91AF919F918F917F916F915F914F91E8
:100850003F912F910F900FBE0F901F9018951F92F0
:100860000F920FB60F9211242F938F939F93EF93B4
:10087000FF93E0911303F09114038081E091190339
:10088000F0911A0382FD12C0908180911C038F5F4A
:100890008F7320911D03821751F0E0911C03F0E04B
:1008A000ED5FFC4F958F80931C0301C08081FF9109
:1008B000EF919F918F912F910F900FBE0F901F90EE
:1008C00018951F920F920FB60F9211242F933F93FA
:1008D0008F939F93AF93BF9380911A0290911B02C5
:1008E000A0911C02B0911D023091190223E0230F48
:1008F0002D3720F40196A11DB11D05C026E8230F58
:100900000296A11DB11D2093190280931A029093A3
:100910001B02A0931C02B0931D0280911E029091B5
:100920001F02A0912002B09121020196A11DB11DCC
:1009300080931E0290931F02A0932002B093210285
:10094000BF91AF919F918F913F912F910F900FBECB
:100950000F901F9018951F920F920FB60F921124AF
:100960002F933F934F935F936F937F938F939F93B7
:10097000AF93BF93EF93FF93E0910201F0910301D6
:100980000995FF91EF91BF91AF919F918F917F91C9
:100990006F915F914F913F912F910F900FBE0F90EC
:1009A0001F9018951F920F920FB60F9211242F933C
:1009B0003F934F935F936F937F938F939F93AF93E7
:1009C000BF93EF93FF93E0910001F091010109952E
:1009D000FF91EF91BF91AF919F918F917F916F9117
:1009E0005F914F913F912F910F900FBE0F901F90ED
:1009F00018951F920F920FB60F9211242F933F93C9
:100A00004F935F936F937F938F939F93AF93BF9316
:100A1000EF93FF938091B900887F803609F49CC0E2
:100A200068F5883209F45BC090F4803109F454C051
:100A300038F4882309F4F2C0883009F44DC0F2C0BC
:100A4000883109F44CC0803209F45DC0EBC08034B9
:100A500009F468C048F4803309F455C0883309F0BC
:100A6000E1C08093F201D4C0803509F44FC08835CD
:100A700009F45DC0883409F0D5C0D2C0883909F4C2
:100A8000C3C0A8F4883709F467C038F4883609F47D
:100A900063C0803709F460C0C5C0883809F4B4C0A9
:100AA000803909F45FC0803809F0BCC05BC0803B6E
:100AB00009F484C038F4803A09F466C0883A09F42D
:100AC0007DC0B0C0803C09F4A3C0883C09F4A0C03C
:100AD000883B09F486C0A6C08091180210C090918E
:100AE000170280911602981770F5E091170281E0C5
:100AF0008E0F80931702F0E0EA50FE4F80818093C2
:100B0000BB0085EC82C08093F2018AC0E09117029D
:100B100081E08E0F809317028091BB00F0E0EA50D5
:100B2000FE4F808390911702809116026AC0E09177
:100B3000170281E08E0F809317028091BB00F0E0D6
:100B4000EA50FE4F80838091F501811169C081E0F8
:100B50008093F40184EA5DC083E08093F3011092F6
:100B6000F101CFCF8091F101803208F04DC0E091CA
:100B7000F10181E08E0F8093F1018091BB00F0E0E4
:100B8000EF52FE4F8083BDCF85EC8093BC00109266
:100B9000F3018091F101803230F4E091F101F0E055
:100BA000EF52FE4F10826091F10170E081ED91E013
:100BB000E0E0F0E009951092F10134C084E0809308
:100BC000F3011092D0011092CF01E0E0F0E009951E
:100BD0008091CF01811105C081E08093CF011092F7
:100BE000AF01E091D00181E08E0F8093D001F0E061
:100BF000E155FE4F80818093BB009091D0018091A0
:100C0000CF01981708F47DCF85E88093BC000AC017
:100C100085EC8093BC001092F30104C01092F201A5
:100C20000E941D03FF91EF91BF91AF919F918F9112
:100C30007F916F915F914F913F912F910F900FBED8
:100C40000F901F901895E3E0F3E01382128288EE74
:100C500093E0A0E0B0E084839583A683B78320E18E
:100C600031E03183208325EC30E03587248724EC84
:100C700030E03787268720EC30E0318B208B21EC69
:100C800030E0338B228B22EC30E0358B248B26EC4A
:100C900030E0378B268B118E128E138E148EE0EA85
:100CA000F3E01382128284839583A683B78382E262
:100CB00091E0918380830895789484B5826084BDA7
:100CC00084B5816084BD85B5826085BD85B5816050
:100CD00085BD80916E00816080936E0010928100CE
:100CE0008091810082608093810080918100816089
:100CF000809381008091800081608093800080914A
:100D0000B10084608093B1008091B00081608093D5
:100D1000B00080917A00846080937A0080917A009C
:100D2000826080937A0080917A00816080937A005B
:100D300080917A00806880937A001092C10061E00F
:100D40008DE00E94190281E08093230280932202A9
:100D5000109227021092260210922502109224026D
:100D600060E084E00E94190260E085E00E941902C0
:100D700082EC93E0909301018093000180916900DF
:100D80008C7F816080936900E89A8DE793E090936F
:100D900003018093020180916900837F84608093C6
:100DA0006900E99A8FEF9FEF90932E0280932D02B6
:100DB00010922C020E941003609328027093290263
:100DC00080932A0290932B02109295021092940223
:100DD00061E08AE00E94190261E08BE00E94190242
:100DE00061E087E00E94190261E086E00E9419023A
:100DF00060E070E08AE00E94550260E070E08BE005
:100E00000E94550261E086E00E94EA0161E087E00D
:100E10000E94EA0110922F0210929602E0911303B1
:100E2000F091140382E08083E0910F03F0911003AE
:100E30001082E0911103F091120380E180831092FF
:100E40001B03E0911703F091180386E08083E09183
:100E50001503F0911603808180618083E091150372
:100E6000F0911603808188608083E0911503F091F2
:100E70001603808180688083E0911503F09116034A
:100E800080818F7D8083C3E0D0E060E08DE00E94B0
:100E9000EA010E94D90261E08DE00E94EA010E940D
:100EA000D902219791F760E08DE00E94EA0110924B
:100EB00002031092010310929C0210929B02109266
:100EC0009702109298021092990210929A0200E3EF
:100ED00011E0C0E3D2E04FE5E42E41E0F42E5EE8FD
:100EE000C52E51E0D52E83E093E00E94E70018164E
:100EF00019060CF0A3C083E093E00E94C500209186
:100F0000010330910203A9014F5F5F4F5093020329
:100F100040930103F901E356FD4F808342305105B0
:100F2000F1F480919E02082E000C990B982F8827CF
:100F300020919D02022E000C330B822B932B222733
:100F40003327281B390B243031052CF490939C0255
:100F500080939B0204C010929C0210929B0280918D
:100F60009B0290919C02EE27FF27E81BF90BEE0FE6
:100F7000FF1FEC5FFE4F208131812E5F3F4F4217F4
:100F8000530708F47DC0009709F44FC08F3F2FEF3F
:100F9000920719F561E080919F02863609F060E0C2
:100FA00086E00E94EA0161E08091A102863609F0A4
:100FB00060E087E00E94EA016091A002062E000C2A
:100FC000770B8AE00E9455026091A202062E000C67
:100FD000770B8BE00E94550228C0029631F561E044
:100FE0008DE00E94EA01B09026026091270283E022
:100FF00093E00E941F016B2D83E093E00E941F018C
:10100000B09024026091250283E093E00E941F01CA
:101010006B2D83E093E00E941F0110922702109233
:1010200026021092250210922402109202031092BE
:10103000010310929C0210929B0222C00E94100396
:101040000E942109209197023091980240919902C3
:1010500050919A020E94B40820E030E04AE754E43C
:101060000E94AF09181664F40E9410030E9421091F
:1010700060939702709398028093990290939A02DA
:10108000809196028823E1F01F921F921F921F9277
:10109000809195021F928F93809194021F928F935B
:1010A0001F930F93DF93CF930E94E3091092960250
:1010B0008DB79EB70C960FB6F8949EBF0FBE8DBF2E
:1010C00080912F02882351F11F921F921F921F922D
:1010D000809195021F928F93809194021F928F931B
:1010E000FF92EF92DF93CF930E94E3091F921F922A
:1010F00080912E028F9380912D028F93DF92CF9259
:10110000DF93CF930E94E30910922F028DB79EB711
:1011100044960FB6F8949EBF0FBE8DBF80912C02EF
:10112000882331F061E08DE00E94EA0110922C02E8
:101130000E9410038090280290902902A0902A0219
:10114000B0902B02DC01CB0188199909AA09BB09CF
:10115000853F9140A105B10520F060E08DE00E943F
:10116000EA010E948E01BFCE5058BB27AA270E94D9
:10117000CC080C9475090E94670938F00E946E092A
:1011800020F039F49F3F19F426F40C9464090EF40E
:10119000E095E7FB0C945E09E92F0E94860958F35D
:1011A000BA17620773078407950720F079F4A6F54C
:1011B0000C94A8090EF4E0950B2EBA2FA02D0B016C
:1011C000B90190010C01CA01A0011124FF27591B8C
:1011D00099F0593F50F4503E68F11A16F040A22F92
:1011E000232F342F4427585FF3CF46953795279503
:1011F000A795F0405395C9F77EF41F16BA0B620B02
:10120000730B840BBAF09150A1F0FF0FBB1F661F48
:10121000771F881FC2F70EC0BA0F621F731F841F8B
:1012200048F4879577956795B795F7959E3F08F0B1
:10123000B0CF9395880F08F09927EE0F9795879573
:101240000895E89409C097FB3EF4909580957095B9
:1012500061957F4F8F4F9F4F9923A9F0F92F96E902
:10126000BB279395F695879577956795B795F11177
:10127000F8CFFAF4BB0F11F460FF1BC06F5F7F4F14
:101280008F4F9F4F16C0882311F096E911C0772326
:1012900021F09EE8872F762F05C0662371F096E82F
:1012A000862F70E060E02AF09A95660F771F881FFE
:1012B000DAF7880F9695879597F9089597F99F67BC
:1012C00080E870E060E008959FEF80EC08950024CE
:1012D0000A941616170618060906089500240A949B
:1012E00012161306140605060895092E0394000C21
:1012F00011F4882352F0BB0F40F4BF2B11F460FFB0
:1013000004C06F5F7F4F8F4F9F4F089557FD9058D8
:10131000440F551F59F05F3F71F04795880F97FBB9
:10132000991F61F09F3F79F0879508951216130673
:101330001406551FF2CF4695F1DF08C016161706A2
:101340001806991FF1CF86957105610508940895D7
:10135000E894BB2766277727CB0197F908950E9469
:10136000B40908F48FEF0895990F0008550FAA0BE0
:10137000E0E8FEEF16161706E807F907C0F01216A8
:101380001306E407F50798F0621B730B840B950BAB
:1013900039F40A2661F0232B242B252B21F4089500
:1013A0000A2609F4A140A6958FEF811D811D08959D
:1013B000EE0FFF1F0590F491E02D099481E090E07D
:1013C000F8940C94CD0CAEE0B0E0E9EEF9E00C94AA
:1013D000A40C0D891E8986E08C831A8309838FEF04
:1013E0009FE79E838D83AE01475E5F4F6F89788D47
:1013F000CE0101960E94050AEF81F885E00FF11FEA
:1014000010822E96E4E00C94C00CABE0B0E0EBE070
:10141000FAE00C94960C6C017B018A01FC011782A6
:101420001682838181FFCCC1CE0101963C01F60179
:101430009381F70193FD859193FF81917F0188232B
:1014400009F4BAC1853239F493FD859193FF8191F6
:101450007F01853229F4B60190E00E94FC0BE7CFB2
:10146000912C212C312CFFE1F315D8F08B3279F03F
:1014700038F4803279F08332A1F4232D20611DC02D
:101480008D3261F0803369F4232D216016C0832DE5
:101490008260382EE32DE4603E2E2AC0F32DF860E2
:1014A0001DC037FC2DC020ED280F2A3040F08E32B1
:1014B000B9F436FC81C1232D2064322E19C036FECA
:1014C00006C08AE0989E200D1124922E11C0EAE0F9
:1014D0002E9E200D1124222EF32DF0623F2E08C0E7
:1014E0008C3621F4832D8068382E02C0883641F472
:1014F000F70193FD859193FF81917F018111B3CF16
:10150000982F9F7D9554933028F40C5F1F4F9FE3D5
:1015100099830DC0833631F0833771F0833509F03C
:1015200059C021C0F801808189830E5F1F4F882434
:101530008394912C530113C02801F2E04F0E511CEB
:10154000F801A080B18036FE03C0692D70E002C0B2
:101550006FEF7FEFC5010E94F10B4C018201F32D6B
:10156000FF773F2E16C0280122E0420E511CF801E1
:10157000A080B18036FE03C0692D70E002C06FEF1D
:101580007FEFC5010E94E60B4C01F32DF0683F2E62
:10159000820133FC1BC0822D90E088169906B0F4BE
:1015A000B60180E290E00E94FC0B2A94F4CFF50192
:1015B00037FC859137FE81915F01B60190E00E9472
:1015C000FC0B21102A9421E0821A910881149104C5
:1015D00071F7E8C0843611F0893641F5F80137FE1D
:1015E00007C060817181828193810C5F1F4F08C0A9
:1015F00060817181072E000C880B990B0E5F1F4FC5
:10160000F32DFF763F2E97FF09C09095809570953A
:1016100061957F4F8F4F9F4FF0683F2E2AE030E05B
:10162000A3010E94380C882E861845C0853731F4F6
:10163000232D2F7EB22E2AE030E025C0932D997FF6
:10164000B92E8F36C1F018F4883579F0B5C08037DF
:1016500019F0883721F0B0C0E92FE061BE2EB4FE4A
:101660000DC0FB2DF460BF2E09C034FE0AC0292F27
:101670002660B22E06C028E030E005C020E130E050
:1016800002C020E132E0F801B7FE07C0608171813D
:10169000828193810C5F1F4F06C06081718180E061
:1016A00090E00E5F1F4FA3010E94380C882E861811
:1016B000FB2DFF773F2E36FE0DC0232D2E7FA22E51
:1016C000891458F434FE0BC032FC09C0832D8E7E81
:1016D000A82E05C0B82CA32C03C0B82C01C0B92C6F
:1016E000A4FE0FC0FE01E80DF11D8081803321F4BE
:1016F0009A2D997EA92E09C0A2FE06C0B394B39478
:1017000004C08A2D867809F0B394A3FC11C0A0FE12
:1017100006C0B21488F4280C922C9B180EC0B21488
:1017200060F4B60180E290E00E94FC0BB394F7CF26
:10173000B21418F42B1802C0982C212CA4FE10C04F
:10174000B60180E390E00E94FC0BA2FE17C0A1FC52
:1017500003C088E790E002C088E590E0B6010CC0C5
:101760008A2D867859F0A1FE02C08BE201C080E28A
:10177000A7FC8DE2B60190E00E94FC0B891438F4BE
:10178000B60180E390E00E94FC0B9A94F7CF8A9414
:10179000F301E80DF11D8081B60190E00E94FC0B81
:1017A0008110F5CF222009F442CEB60180E290E00C
:1017B0000E94FC0B2A94F6CFF6018681978102C025
:1017C0008FEF9FEF2B96E2E10C94B20CFC01059099
:1017D000615070400110D8F7809590958E0F9F1F33
:1017E0000895FC016150704001900110D8F7809578
:1017F00090958E0F9F1F08950F931F93CF93DF93A4
:10180000FB01238121FD03C08FEF9FEF2CC022FF3E
:1018100016C046815781248135814217530744F40D
:10182000A081B1819D012F5F3F4F318320838C9335
:10183000268137812F5F3F4F3783268314C08B016A
:10184000EC01FB010084F185E02D0995892BE1F67F
:10185000D80116968D919C911797019617969C9397
:101860008E931697CE01DF91CF911F910F9108951E
:10187000FA01AA27283051F1203181F1E8946F93C1
:101880006E7F6E5F7F4F8F4F9F4FAF4FB1E03ED067
:10189000B4E03CD0670F781F891F9A1FA11D680F05
:1018A000791F8A1F911DA11D6A0F711D811D911D38
:1018B000A11D20D009F468943F912AE0269F1124AD
:1018C0003019305D3193DEF6CF010895462F477011
:1018D000405D4193B3E00FD0C9F7F6CF462F4F706C
:1018E000405D4A3318F0495D31FD4052419302D0CA
:1018F000A9F7EACFB4E0A695979587957795679570
:10190000BA95C9F700976105710508959B01AC016F
:101910000A2E06945795479537952795BA95C9F796
:10192000620F731F841F951FA01D08952F923F9271
:101930004F925F926F927F928F929F92AF92BF92DF
:10194000CF92DF92EF92FF920F931F93CF93DF938B
:10195000CDB7DEB7CA1BDB0B0FB6F894DEBF0FBEE8
:10196000CDBF09942A88398848885F846E847D8435
:101970008C849B84AA84B984C884DF80EE80FD8037
:101980000C811B81AA81B981CE0FD11D0FB6F894AD
:0E199000DEBF0FBECDBFED010895F894FFCF6E
:10199E001C031C03000004000000050000000000F2
:1019AE001F018C00B6006C01E700C500D9000000D5
:1019BE00000068035D037A034F035603530350037D
:1019CE006C50574D203D202564207250574D203DC0
:1019DE00202564202D2D2D206C50574D32203D207A
:1019EE002564207250574D32203D2025640A006C2C
:1019FE0050574D203D202564207250574D203D20DC
:101A0E00256420616E64206C50574D32203D202598
:101A1E0064207250574D32203D2025640A006D6FB0
:101A2E0074436F756E74203D2025642C206D6F7489
:0C1A3E00436F756E7432203D202564005B
:00000001FF
