:100000000C9462000C9433050C940C050C948A003B
:100010000C948A000C948A000C948A000C948A0038
:100020000C948A000C948A000C948A000C948A0028
:100030000C948A000C948A000C948A000C948A0018
:100040000C94C2040C948A000C9490040C946A04DE
:100050000C948A000C948A000C948A000C948A00F8
:100060000C945A050C948A0000000000240027001C
:100070002A0000000000250028002B0000000000DE
:1000800023002600290004040404040404040202DA
:100090000202020203030303030301020408102007
:1000A0004080010204081020010204081020000012
:1000B0000008000201000003040700000000000027
:1000C0000000840611241FBECFEFD8E0DEBFCDBFF5
:1000D00011E0A0E0B1E0E0E3FBE102C005900D9289
:1000E000A63DB107D9F723E0A6EDB1E001C01D920E
:1000F000A63DB207E1F710E0C2E6D0E004C02197C8
:10010000FE010E94A10AC136D107C9F70E94BD06AF
:100110000C94960D0C940000CF92DF92EF92FF9218
:100120000F931F93CF93DF936C017A018B01C0E093
:10013000D0E0CE15DF0581F0D8016D918D01D6019B
:10014000ED91FC910190F081E02DC6010995892B7C
:1001500011F02196EECF7E01C701DF91CF911F9163
:100160000F91FF90EF90DF90CF900895FC01538D99
:10017000448D252F30E0842F90E0821B930B541781
:1001800010F0CF96089501970895FC01918D828D0E
:10019000981761F0828DDF01A80FB11D5D968C91DB
:1001A000928D9F5F9F73928F90E008958FEF9FEFE6
:1001B0000895FC01918D828D981731F0828DE80FA2
:1001C000F11D858D90E008958FEF9FEF0895FC015C
:1001D000918D228D892F90E0805C9F4F821B910929
:1001E0008F73992708958DE293E00E94E70021E044
:1001F000892B09F420E0822F0895FC01848DDF0112
:10020000A80FB11DA35ABF4F2C91848D90E0019689
:100210008F739927848FA689B7892C93A089B18978
:100220008C91837080648C93938D848D981306C019
:100230000288F389E02D80818F7D80830895EF927D
:10024000FF920F931F93CF93DF93EC0181E0888F90
:100250009B8D8C8D981305C0E889F989808185FD77
:1002600026C0F62E0B8D10E00F5F1F4F0F73112766
:10027000E02E8C8DE8120CC00FB607FCFACFE8898F
:10028000F989808185FFF5CFCE010E94FD00F1CF75
:100290008B8DFE01E80FF11DE35AFF4FF0829FB7EF
:1002A000F8940B8FEA89FB89808180620AC09FB72E
:1002B000F894EE89FF896083E889F98980818370E9
:1002C000806480839FBF81E090E0DF91CF911F9198
:1002D0000F91FF90EF900895CF93DF93EC01888DFD
:1002E0008823C9F0EA89FB89808185FD05C0A8893A
:1002F000B9898C9186FD0FC00FB607FCF5CF8081C0
:1003000085FFF2CFA889B9898C9185FFEDCFCE0109
:100310000E94FD00E7CFDF91CF91089580E090E04B
:10032000892B29F00E94F30081110C94000008959C
:10033000833081F028F4813099F08230A1F0089563
:100340008730A9F08830B9F08430D1F480918000F2
:100350008F7D03C0809180008F7780938000089507
:1003600084B58F7702C084B58F7D84BD0895809158
:10037000B0008F7703C08091B0008F7D8093B00074
:100380000895CF93DF93282F30E0F901E255FF4F16
:100390008491F901E656FF4FD491F901EA57FF4FD6
:1003A000C491CC2391F081110E949801EC2FF0E0D0
:1003B000EE0FFF1FE458FF4FA591B491EC91ED2390
:1003C00081E090E021F480E002C080E090E0DF91E5
:1003D000CF9108951F93CF93DF93282F30E0F90139
:1003E000E255FF4F8491F901E656FF4FD491F90190
:1003F000EA57FF4FC491CC23C1F0162F81110E9400
:100400009801EC2FF0E0EE0FFF1FEE58FF4FA59183
:10041000B4919FB7F894111104C08C91D095D82352
:1004200002C0EC91DE2BDC939FBFDF91CF911F9137
:100430000895CF93DF9390E0FC01E656FF4F24919F
:10044000FC01EA57FF4F8491882361F190E0880F07
:10045000991FFC01E859FF4FC591D491FC01EE585A
:10046000FF4FA591B491611109C09FB7F89488819D
:10047000209582238883EC912E230BC0623061F497
:100480009FB7F8948881322F309583238883EC912D
:100490002E2B2C939FBF06C08FB7F894E8812E2B8C
:1004A00028838FBFDF91CF9108951F93CF93DF9360
:1004B000182FEB0161E00E941902209711F460E00F
:1004C00004C0CF3FD10539F461E0812FDF91CF9196
:1004D0001F910C94EA01E12FF0E0E255FF4FE49107
:1004E000E330F9F048F4E130B9F0E230A1F584B539
:1004F000806284BDC8BD34C0E730E9F0E83019F14E
:10050000E43049F580918000806280938000D09330
:100510008B00C0938A0024C084B5806884BDC7BDA9
:100520001FC080918000806880938000D0938900F4
:10053000C093880015C08091B00080688093B0009F
:10054000C093B3000DC08091B00080628093B00072
:10055000C093B40005C0C038D1050CF0B5CFAFCF03
:10056000DF91CF911F9108953FB7F8948091480291
:1005700090914902A0914A02B0914B0226B5A89BE6
:1005800005C02F3F19F00196A11DB11D3FBFBA2F25
:10059000A92F982F8827820F911DA11DB11DBC0185
:1005A000CD0142E0660F771F881F991F4A95D1F74A
:1005B00008958F929F92AF92BF92CF92DF92EF9267
:1005C000FF920E94B4024B015C0182E3C82ED12C41
:1005D000E12CF12C0E94B402DC01CB0188199909AD
:1005E000AA09BB09883E9340A105B10598F321E013
:1005F000C21AD108E108F10888EE880E83E0981E3F
:10060000A11CB11CC114D104E104F10419F7FF903D
:10061000EF90DF90CF90BF90AF909F908F90089514
:100620002FB7F89460914402709145028091460280
:10063000909147022FBF0895089585ED8093BC00E7
:100640008091BC0084FDFCCF10921D020895409162
:10065000F901262F30E0240F311D21323105DCF461
:1006600020911D022430C9F4FC0180E090E086173F
:1006700058F43091F9012191DC01A752BE4FA30F2C
:10068000B11D2C930196F3CF8091F901680F60930F
:10069000F90180E0089581E0089582E008950895C9
:1006A0008FEF9FEF08958FEF9FEF08958091D8010E
:1006B00090E09195819591090895CF93DF93CB01B7
:1006C000EA01642F0E942703CE01DF91CF910895A4
:1006D000CF93DF931F92CDB7DEB7698361E0CE0180
:1006E00001960E94270381E090E00F90DF91CF9167
:1006F0000895089580E090E008951F93CF93DF93CD
:1007000011E0109356020E941003609352027093FE
:100710005302809354029093550283E00E94C101DA
:10072000EC018091D701811118C0C130D105A9F425
:1007300085E00E94C1019C0190914C022115310578
:1007400029F4992351F010924C0207C02130310551
:1007500021F4911102C010934C02C093D701209153
:100760004C0280914E0290914F02211102C00196DD
:1007700001C0019790934F0280934E02DF91CF9179
:100780001F9108951F93CF93DF9311E010935602AA
:100790000E9410036093520270935302809354029C
:1007A0009093550282E00E94C101EC018091D60134
:1007B000811118C0C130D105A9F484E00E94C101A3
:1007C0009C0190914D022115310529F4992351F096
:1007D00010924D0207C02130310521F4911102C061
:1007E00010934D02C093D60120914D02809150028A
:1007F00090915102211102C0019601C0019790937E
:10080000510280935002DF91CF911F91089500977C
:1008100069F0FC0101900020E9F73197AF01481B16
:10082000590BBC018DE293E00C948C0080E090E0C9
:1008300008958F929F92AF92BF920F931F93CF9381
:10084000DF93CDB7DEB7A1970FB6F894DEBF0FBE2A
:10085000CDBF19A2423008F44AE08E010F5D1F4F50
:10086000842E912CA12CB12CA50194010E947F0A09
:10087000E62FB901CA0101501109EA3014F4E05D14
:1008800001C0E95CD801EC93232B242B252B61F7C5
:10089000C8010E940704A1960FB6F894DEBF0FBEF0
:1008A000CDBFDF91CF911F910F91BF90AF909F90DF
:1008B0008F900895CF93DF930E940704EC0180E3AB
:1008C00091E00E9407048C0F9D1FDF91CF91089546
:1008D0000E94A70A1F920F920FB60F9211242F9316
:1008E0003F934F935F936F937F938F939F93AF93B8
:1008F000BF93EF93FF938DE293E00E94FD00FF9181
:10090000EF91BF91AF919F918F917F916F915F9187
:100910004F913F912F910F900FBE0F901F90189500
:100920001F920F920FB60F9211242F938F939F93C4
:10093000EF93FF93E0913D03F0913E038081E091BE
:100940004303F091440382FD12C0908180914603DD
:100950008F5F8F7320914703821751F0E091460318
:10096000F0E0E35DFC4F958F8093460301C08081EA
:10097000FF91EF919F918F912F910F900FBE0F904C
:100980001F9018951F920F920FB60F9211242F935C
:100990003F938F939F93AF93BF9380914402909125
:1009A0004502A0914602B09147023091430223E0F4
:1009B000230F2D3720F40196A11DB11D05C026E897
:1009C000230F0296A11DB11D209343028093440280
:1009D00090934502A0934602B0934702809148024B
:1009E00090914902A0914A02B0914B020196A11D3B
:1009F000B11D8093480290934902A0934A02B0939C
:100A00004B02BF91AF919F918F913F912F910F908A
:100A10000FBE0F901F9018951F920F920FB60F9256
:100A200011242F933F934F935F936F937F938F93F3
:100A30009F93AF93BF93EF93FF93E0910201F091E7
:100A400003010995FF91EF91BF91AF919F918F9114
:100A50007F916F915F914F913F912F910F900FBEBA
:100A60000F901F9018951F920F920FB60F9211249E
:100A70002F933F934F935F936F937F938F939F93A6
:100A8000AF93BF93EF93FF93E0910001F0910101C9
:100A90000995FF91EF91BF91AF919F918F917F91B8
:100AA0006F915F914F913F912F910F900FBE0F90DB
:100AB0001F9018951F920F920FB60F9211242F932B
:100AC0003F934F935F936F937F938F939F93AF93D6
:100AD000BF93EF93FF938091B900887F803609F42C
:100AE0009CC068F5883209F45BC090F4803109F449
:100AF00054C038F4882309F4F2C0883009F44DC09A
:100B0000F2C0883109F44CC0803209F45DC0EBC0FA
:100B1000803409F468C048F4803309F455C0883340
:100B200009F0E1C080931C02D4C0803509F44FC0A5
:100B3000883509F45DC0883409F0D5C0D2C0883941
:100B400009F4C3C0A8F4883709F467C038F48836BC
:100B500009F463C0803709F460C0C5C0883809F45F
:100B6000B4C0803909F45FC0803809F0BCC05BC0F4
:100B7000803B09F484C038F4803A09F466C0883AAE
:100B800009F47DC0B0C0803C09F4A3C0883C09F4DE
:100B9000A0C0883B09F486C0A6C08091420210C064
:100BA0009091410280914002981770F5E0914102C6
:100BB00081E08E0F80934102F0E0E05EFD4F808186
:100BC0008093BB0085EC82C080931C028AC0E091B8
:100BD000410281E08E0F809341028091BB00F0E0E2
:100BE000E05EFD4F808390914102809140026AC097
:100BF000E091410281E08E0F809341028091BB0021
:100C0000F0E0E05EFD4F808380911F02811169C09A
:100C100081E080931E0284EA5DC083E080931D0220
:100C200010921B02CFCF80911B02803208F04DC082
:100C3000E0911B0281E08E0F80931B028091BB002C
:100C4000F0E0E550FE4F8083BDCF85EC8093BC0083
:100C500010921D0280911B02803230F4E0911B0241
:100C6000F0E0E550FE4F108260911B0270E08BEFC8
:100C700091E0E0E0F0E0099510921B0234C084E0BE
:100C800080931D021092FA011092F901E0E0F0E069
:100C900009958091F901811105C081E08093F901E6
:100CA0001092D901E091FA0181E08E0F8093FA0150
:100CB000F0E0E752FE4F80818093BB009091FA01F3
:100CC0008091F901981708F47DCF85E88093BC00E6
:100CD0000AC085EC8093BC0010921D0204C01092E3
:100CE0001C020E941D03FF91EF91BF91AF919F9154
:100CF0008F917F916F915F914F913F912F910F90C5
:100D00000FBE0F901F901895EDE2F3E01382128250
:100D100088EE93E0A0E0B0E084839583A683B78358
:100D200020E131E03183208325EC30E035872487D2
:100D300024EC30E03787268720EC30E0318B208BA5
:100D400021EC30E0338B228B22EC30E0358B248B8E
:100D500026EC30E0378B268B118E128E138E148E7C
:100D6000EAECF3E01382128284839583A683B7832F
:100D700082E291E0918380830895789484B58260C3
:100D800084BD84B5816084BD85B5826085BD85B52F
:100D9000816085BD80916E00816080936E001092AD
:100DA0008100809181008260809381008091810028
:100DB00081608093810080918000816080938000B9
:100DC0008091B10084608093B1008091B000816017
:100DD0008093B00080917A00846080937A00809143
:100DE0007A00826080937A0080917A00816080939B
:100DF0007A0080917A00806880937A001092C10016
:100E000061E08DE00E94190281E080934D028093A1
:100E10004C02109251021092500210924F02109206
:100E20004E0260E084E00E94190260E085E00E94CA
:100E3000190282EC93E0909301018093000180916C
:100E400069008C7F816080936900E89A8DE793E068
:100E5000909303018093020180916900837F8460F5
:100E600080936900E99A8FEF9FEF909358028093E7
:100E70005702109256020E94100360935202709320
:100E8000530280935402909355021092BF02109225
:100E9000BE0261E08AE00E94190261E08BE00E94DC
:100EA000190261E087E00E94190261E086E00E9479
:100EB000190260E070E08AE00E94550260E070E094
:100EC0008BE00E94550261E086E00E94EA0161E049
:100ED00087E00E94EA01109259021092C002E0914C
:100EE0003D03F0913E0382E08083E0913903F0916D
:100EF0003A031082E0913B03F0913C0380E1808350
:100F000010924503E0914103F091420386E0808313
:100F1000E0913F03F0914003808180618083E09104
:100F20003F03F0914003808188608083E0913F031C
:100F3000F0914003808180688083E0913F03F091CD
:100F4000400380818F7D8083C3E0D0E060E08DE04E
:100F50000E94EA010E94D90261E08DE00E94EA014C
:100F60000E94D902219791F760E08DE00E94EA018A
:100F700010922C0310922B031092C6021092C502FD
:100F80001092C1021092C2021092C3021092C402C7
:100F90004DECA42E42E0B42E09E511E0CAE5D2E002
:100FA00058E8E52E51E0F52E67EBC62E61E0D62E0F
:100FB0008DE293E00E94E700181619060CF0D9C0E4
:100FC0008DE293E00E94C50020912B0330912C0309
:100FD000A9014F5F5F4F50932C0340932B03F901FE
:100FE000E953FD4F808342305105F1F48091C802EE
:100FF000082E000C990B982F88272091C702022EEB
:10100000000C330B822B932B22273327281B390B01
:10101000243031052CF49093C6028093C50204C09D
:101020001092C6021092C5028091C5029091C6022C
:10103000EE27FF27E81BF90BEE0FFF1FEC5FFE4FBB
:10104000208131812E5F3F4F4217530708F4B3C010
:1010500010922C0310922B03009709F460C08F3F6D
:101060002FEF920709F03FC083E391E00E945A04FA
:1010700087EC682E82E0782EF30161913F0170E0E9
:1010800080E090E04AE00E9419048DE491E00E9423
:101090000704A614B70481F780E391E00E940704D7
:1010A00061E08091C902863609F060E086E00E9426
:1010B000EA0161E08091CB02863609F060E087E0CA
:1010C0000E94EA016091CA02062E000C770B8AE0AA
:1010D0000E9455026091CC02062E000C770B8BE02B
:1010E0000E9455021CC00296D1F47090500260918B
:1010F00051028DE293E00E941F01672D8DE293E083
:101100000E941F0170904E0260914F028DE293E0A9
:101110000E941F01672D8DE293E00E941F018FE462
:1011200091E00E9407044090C5025090C602052C31
:10113000000C6608770877FE0EC06DE28DE293E042
:101140000E941F0166277727CB016419750986095C
:1011500097094AE003C04AE0C301B2010E941904A2
:1011600080E391E00E9407041092C6021092C5022B
:1011700022C00E9410030E94C8092091C102309130
:10118000C2024091C3025091C4020E945B0920E058
:1011900030E04AE754E40E94560A181664F40E94AC
:1011A00010030E94C8096093C1027093C202809329
:1011B000C3029093C4028091C002882301F11F9260
:1011C0001F921F921F928091BF021F928F93809156
:1011D000BE021F928F931F930F93DF93CF930E94B2
:1011E000AC0A8AE592E00E9407041092C002EDB7B3
:1011F000FEB73C960FB6F894FEBF0FBEEDBF8091D0
:101200005902882391F11F921F921F921F92809181
:10121000BF021F928F938091BE021F928F93FF9205
:10122000EF92DF93CF930E94AC0A8AE592E00E948E
:101230005A041F921F92809158028F9380915702F7
:101240008F93DF92CF92DF93CF930E94AC0A8AE50F
:1012500092E00E945A0410925902EDB7FEB77496BC
:101260000FB6F894FEBF0FBEEDBF809156028823E3
:1012700031F061E08DE00E94EA01109256020E9476
:1012800010034090520250905302609054027090AC
:101290005502DC01CB0184199509A609B709853FE0
:1012A0009140A105B10520F060E08DE00E94EA01C7
:1012B0000E948E017DCE5058BB27AA270E94730939
:1012C0000C941C0A0E940E0A38F00E94150A20F0A5
:1012D00039F49F3F19F426F40C940B0A0EF4E095B0
:1012E000E7FB0C94050AE92F0E942D0A58F3BA1760
:1012F000620773078407950720F079F4A6F50C942C
:101300004F0A0EF4E0950B2EBA2FA02D0B01B90158
:1013100090010C01CA01A0011124FF27591B99F06B
:10132000593F50F4503E68F11A16F040A22F232F77
:10133000342F4427585FF3CF469537952795A795C7
:10134000F0405395C9F77EF41F16BA0B620B730B6E
:10135000840BBAF09150A1F0FF0FBB1F661F771FDF
:10136000881FC2F70EC0BA0F621F731F841F48F494
:10137000879577956795B795F7959E3F08F0B0CF1D
:101380009395880F08F09927EE0F97958795089504
:10139000E89409C097FB3EF490958095709561950F
:1013A0007F4F8F4F9F4F9923A9F0F92F96E9BB27C5
:1013B0009395F695879577956795B795F111F8CF41
:1013C000FAF4BB0F11F460FF1BC06F5F7F4F8F4FAC
:1013D0009F4F16C0882311F096E911C0772321F0A2
:1013E0009EE8872F762F05C0662371F096E8862F3A
:1013F00070E060E02AF09A95660F771F881FDAF791
:10140000880F9695879597F9089597F99F6780E8D3
:1014100070E060E008959FEF80EC089500240A9446
:101420001616170618060906089500240A941216BF
:101430001306140605060895092E0394000C11F4F2
:10144000882352F0BB0F40F4BF2B11F460FF04C09F
:101450006F5F7F4F8F4F9F4F089557FD9058440FF8
:10146000551F59F05F3F71F04795880F97FB991F03
:1014700061F09F3F79F087950895121613061406C0
:10148000551FF2CF4695F1DF08C01616170618064D
:10149000991FF1CF86957105610508940895E89428
:1014A000BB2766277727CB0197F908950E945B0A2F
:1014B00008F48FEF0895990F0008550FAA0BE0E884
:1014C000FEEF16161706E807F907C0F01216130606
:1014D000E407F50798F0621B730B840B950B39F446
:1014E0000A2661F0232B242B252B21F408950A26AC
:1014F00009F4A140A6958FEF811D811D0895A1E2F9
:101500001A2EAA1BBB1BFD010DC0AA1FBB1FEE1F7D
:10151000FF1FA217B307E407F50720F0A21BB30BC8
:10152000E40BF50B661F771F881F991F1A9469F744
:1015300060957095809590959B01AC01BD01CF01A0
:101540000895EE0FFF1F0590F491E02D099481E0BE
:1015500090E0F8940C94960DAEE0B0E0E2EBFAE087
:101560000C946D0D0D891E8986E08C831A83098386
:101570008FEF9FE79E838D83AE01475E5F4F6F893C
:10158000788DCE0101960E94CE0AEF81F885E00F9A
:10159000F11F10822E96E4E00C94890DABE0B0E0D0
:1015A000E4EDFAE00C945F0D6C017B018A01FC0113
:1015B00017821682838181FFCCC1CE0101963C0146
:1015C000F6019381F70193FD859193FF81917F014E
:1015D000882309F4BAC1853239F493FD859193FFCC
:1015E00081917F01853229F4B60190E00E94C50CFB
:1015F000E7CF912C212C312CFFE1F315D8F08B3261
:1016000079F038F4803279F08332A1F4232D20610F
:101610001DC08D3261F0803369F4232D216016C026
:10162000832D8260382EE32DE4603E2E2AC0F32DF8
:10163000F8601DC037FC2DC020ED280F2A3040F087
:101640008E32B9F436FC81C1232D2064322E19C0AC
:1016500036FE06C08AE0989E200D1124922E11C0FD
:10166000EAE02E9E200D1124222EF32DF0623F2E53
:1016700008C08C3621F4832D8068382E02C088364D
:1016800041F4F70193FD859193FF81917F018111D1
:10169000B3CF982F9F7D9554933028F40C5F1F4F44
:1016A0009FE399830DC0833631F0833771F0833522
:1016B00009F059C021C0F801808189830E5F1F4F56
:1016C00088248394912C530113C02801F2E04F0E1B
:1016D000511CF801A080B18036FE03C0692D70E076
:1016E00002C06FEF7FEFC5010E94BA0C4C0182016E
:1016F000F32DFF773F2E16C0280122E0420E511C29
:10170000F801A080B18036FE03C0692D70E002C0F0
:101710006FEF7FEFC5010E94AF0C4C01F32DF06815
:101720003F2E820133FC1BC0822D90E08816990663
:10173000B0F4B60180E290E00E94C50C2A94F4CF88
:10174000F50137FC859137FE81915F01B60190E08C
:101750000E94C50C21102A9421E0821A910881145C
:10176000910471F7E8C0843611F0893641F5F8012B
:1017700037FE07C060817181828193810C5F1F4FAA
:1017800008C060817181072E000C880B990B0E5FD9
:101790001F4FF32DFF763F2E97FF09C09095809540
:1017A000709561957F4F8F4F9F4FF0683F2E2AE0D5
:1017B00030E0A3010E94010D882E861845C08537B0
:1017C00031F4232D2F7EB22E2AE030E025C0932D58
:1017D000997FB92E8F36C1F018F4883579F0B5C0ED
:1017E000803719F0883721F0B0C0E92FE061BE2EB4
:1017F000B4FE0DC0FB2DF460BF2E09C034FE0AC03C
:10180000292F2660B22E06C028E030E005C020E176
:1018100030E002C020E132E0F801B7FE07C060818D
:101820007181828193810C5F1F4F06C0608171813D
:1018300080E090E00E5F1F4FA3010E94010D882EF3
:101840008618FB2DFF773F2E36FE0DC0232D2E7FF1
:10185000A22E891458F434FE0BC032FC09C0832D2B
:101860008E7EA82E05C0B82CA32C03C0B82C01C0B6
:10187000B92CA4FE0FC0FE01E80DF11D808180335C
:1018800021F49A2D997EA92E09C0A2FE06C0B39418
:10189000B39404C08A2D867809F0B394A3FC11C0D8
:1018A000A0FE06C0B21488F4280C922C9B180EC01F
:1018B000B21460F4B60180E290E00E94C50CB394CB
:1018C000F7CFB21418F42B1802C0982C212CA4FEC8
:1018D00010C0B60180E390E00E94C50CA2FE17C0C4
:1018E000A1FC03C088E790E002C088E590E0B60163
:1018F0000CC08A2D867859F0A1FE02C08BE201C08F
:1019000080E2A7FC8DE2B60190E00E94C50C89142C
:1019100038F4B60180E390E00E94C50C9A94F7CFAA
:101920008A94F301E80DF11D8081B60190E00E94D8
:10193000C50C8110F5CF222009F442CEB60180E219
:1019400090E00E94C50C2A94F6CFF601868197811B
:1019500002C08FEF9FEF2B96E2E10C947B0DFC0110
:101960000590615070400110D8F7809590958E0FCA
:101970009F1F0895FC016150704001900110D8F73D
:10198000809590958E0F9F1F08950F931F93CF936F
:10199000DF93FB01238121FD03C08FEF9FEF2CC05C
:1019A00022FF16C046815781248135814217530793
:1019B00044F4A081B1819D012F5F3F4F318320838B
:1019C0008C93268137812F5F3F4F3783268314C046
:1019D0008B01EC01FB010084F185E02D0995892B39
:1019E000E1F6D80116968D919C911797019617965E
:1019F0009C938E931697CE01DF91CF911F910F91FB
:101A00000895FA01AA27283051F1203181F1E89494
:101A10006F936E7F6E5F7F4F8F4F9F4FAF4FB1E0E1
:101A20003ED0B4E03CD0670F781F891F9A1FA11DDC
:101A3000680F791F8A1F911DA11D6A0F711D811DDD
:101A4000911DA11D20D009F468943F912AE0269FA2
:101A500011243019305D3193DEF6CF010895462F01
:101A60004770405D4193B3E00FD0C9F7F6CF462FE2
:101A70004F70405D4A3318F0495D31FD405241934B
:101A800002D0A9F7EACFB4E0A69597958795779508
:101A90006795BA95C9F700976105710508959B018F
:101AA000AC010A2E06945795479537952795BA9518
:101AB000C9F7620F731F841F951FA01D08952F92F1
:101AC0003F924F925F926F927F928F929F92AF92CE
:101AD000BF92CF92DF92EF92FF920F931F93CF931B
:101AE000DF93CDB7DEB7CA1BDB0B0FB6F894DEBFB2
:101AF0000FBECDBF09942A88398848885F846E84D8
:101B00007D848C849B84AA84B984C884DF80EE8021
:101B1000FD800C811B81AA81B981CE0FD11D0FB62A
:101B2000F894DEBF0FBECDBFED010895F894FFCF4E
:101B30001C031C030000040000000500000000005E
:101B40001F018C00B6006C01E700C500D900000041
:101B5000000068035D037A034F03560353035003E9
:101B60000D0A0052616E20736574204D6F746F72A0
:101B70007320776974682062756666203D20006373
:101B80006F64652077617320006C50574D203D20B5
:101B90002564207250574D203D202564202D2D2D89
:101BA000206C50574D32203D202564207250574DF7
:101BB00032203D2025640A006C50574D203D2025E1
:101BC00064207250574D203D20256420616E6420B2
:101BD0006C50574D32203D202564207250574D32B5
:101BE000203D2025640A006D6F74436F756E74206C
:101BF0003D2025642C206D6F74436F756E74322008
:061C00003D2025640000F8
:00000001FF
