:100000000C9462000C94B6040C948F040C948A0037
:100010000C948A000C948A000C948A000C948A0038
:100020000C948A000C948A000C948A000C948A0028
:100030000C948A000C948A000C948A000C948A0018
:100040000C9445040C948A000C9413040C94ED0356
:100050000C948A000C948A000C948A000C948A00F8
:100060000C94DD040C948A0000000000240027009A
:100070002A0000000000250028002B0000000000DE
:1000800023002600290004040404040404040202DA
:100090000202020203030303030301020408102007
:1000A0004080010204081020010204081020000012
:1000B0000008000201000003040700000000000027
:1000C0000000070611241FBECFEFD8E0DEBFCDBF72
:1000D00011E0A0E0B1E0E8E6F3E102C005900D9286
:1000E000A033B107D9F722E0A0E3B1E001C01D922F
:1000F000AD3CB207E1F710E0C2E6D0E004C02197C2
:10010000FE010E94A709C136D107C9F70E94400627
:100110000C94B2090C940000CF92DF92EF92FF9200
:100120000F931F93CF93DF936C017A018B01C0E093
:10013000D0E0CE15DF0581F0D8016D918D01D6019B
:10014000ED91FC910190F081E02DC6010995892B7C
:1001500011F02196EECF7E01C701DF91CF911F9163
:100160000F91FF90EF90DF90CF900895FC01538D99
:10017000448D252F30E0842F90E0821B930B541781
:1001800010F0CF96089501970895FC01918D828D0E
:10019000981761F0828DDF01A80FB11D5D968C91DB
:1001A000928D9F5F9F73928F90E008958FEF9FEFE6
:1001B0000895FC01918D828D981731F0828DE80FA2
:1001C000F11D858D90E008958FEF9FEF0895FC015C
:1001D000918D228D892F90E0805C9F4F821B910929
:1001E0008F739927089584E292E00E94E70021E04E
:1001F000892B09F420E0822F0895FC01848DDF0112
:10020000A80FB11DA35ABF4F2C91848D90E0019689
:100210008F739927848FA689B7892C93A089B18978
:100220008C91837080648C93938D848D981306C019
:100230000288F389E02D80818F7D80830895EF927D
:10024000FF920F931F93CF93DF93EC0181E0888F90
:100250009B8D8C8D981305C0E889F989808185FD77
:1002600026C0F62E0B8D10E00F5F1F4F0F73112766
:10027000E02E8C8DE8120CC00FB607FCFACFE8898F
:10028000F989808185FFF5CFCE010E94FD00F1CF75
:100290008B8DFE01E80FF11DE35AFF4FF0829FB7EF
:1002A000F8940B8FEA89FB89808180620AC09FB72E
:1002B000F894EE89FF896083E889F98980818370E9
:1002C000806480839FBF81E090E0DF91CF911F9198
:1002D0000F91FF90EF900895CF93DF93EC01888DFD
:1002E0008823C9F0EA89FB89808185FD05C0A8893A
:1002F000B9898C9186FD0FC00FB607FCF5CF8081C0
:1003000085FFF2CFA889B9898C9185FFEDCFCE0109
:100310000E94FD00E7CFDF91CF91089580E090E04B
:10032000892B29F00E94F30081110C94000008959C
:10033000833081F028F4813099F08230A1F0089563
:100340008730A9F08830B9F08430D1F480918000F2
:100350008F7D03C0809180008F7780938000089507
:1003600084B58F7702C084B58F7D84BD0895809158
:10037000B0008F7703C08091B0008F7D8093B00074
:100380000895CF93DF93282F30E0F901E255FF4F16
:100390008491F901E656FF4FD491F901EA57FF4FD6
:1003A000C491CC2391F081110E949801EC2FF0E0D0
:1003B000EE0FFF1FE458FF4FA591B491EC91ED2390
:1003C00081E090E021F480E002C080E090E0DF91E5
:1003D000CF9108951F93CF93DF93282F30E0F90139
:1003E000E255FF4F8491F901E656FF4FD491F90190
:1003F000EA57FF4FC491CC23C1F0162F81110E9400
:100400009801EC2FF0E0EE0FFF1FEE58FF4FA59183
:10041000B4919FB7F894111104C08C91D095D82352
:1004200002C0EC91DE2BDC939FBFDF91CF911F9137
:100430000895CF93DF9390E0FC01E656FF4F24919F
:10044000FC01EA57FF4F8491882361F190E0880F07
:10045000991FFC01E859FF4FC591D491FC01EE585A
:10046000FF4FA591B491611109C09FB7F89488819D
:10047000209582238883EC912E230BC0623061F497
:100480009FB7F8948881322F309583238883EC912D
:100490002E2B2C939FBF06C08FB7F894E8812E2B8C
:1004A00028838FBFDF91CF9108951F93CF93DF9360
:1004B000182FEB0161E00E941902209711F460E00F
:1004C00004C0CF3FD10539F461E0812FDF91CF9196
:1004D0001F910C94EA01E12FF0E0E255FF4FE49107
:1004E000E330F9F048F4E130B9F0E230A1F584B539
:1004F000806284BDC8BD34C0E730E9F0E83019F14E
:10050000E43049F580918000806280938000D09330
:100510008B00C0938A0024C084B5806884BDC7BDA9
:100520001FC080918000806880938000D0938900F4
:10053000C093880015C08091B00080688093B0009F
:10054000C093B3000DC08091B00080628093B00072
:10055000C093B40005C0C038D1050CF0B5CFAFCF03
:10056000DF91CF911F9108953FB7F8948091A20138
:100570009091A301A091A401B091A50126B5A89BDB
:1005800005C02F3F19F00196A11DB11D3FBFBA2F25
:10059000A92F982F8827820F911DA11DB11DBC0185
:1005A000CD0142E0660F771F881F991F4A95D1F74A
:1005B00008958F929F92AF92BF92CF92DF92EF9267
:1005C000FF920E94B4024B015C0182E3C82ED12C41
:1005D000E12CF12C0E94B402DC01CB0188199909AD
:1005E000AA09BB09883E9340A105B10598F321E013
:1005F000C21AD108E108F10888EE880E83E0981E3F
:10060000A11CB11CC114D104E104F10419F7FF903D
:10061000EF90DF90CF90BF90AF909F908F90089514
:100620002FB7F89460919E0170919F018091A00175
:100630009091A1012FBF0895089585ED8093BC008E
:100640008091BC0084FDFCCF109277010895409109
:100650005301262F30E0240F311D21323105DCF407
:10066000209177012430C9F4FC0180E090E08617E6
:1006700058F4309153012191DC01AD5CBE4FA30FC2
:10068000B11D2C930196F3CF80915301680F6093B5
:10069000530180E0089581E0089582E0089508956F
:1006A0008FEF9FEF08958FEF9FEF089580913201B4
:1006B00090E09195819591090895CF93DF93CB01B7
:1006C000EA01642F0E942703CE01DF91CF910895A4
:1006D000CF93DF931F92CDB7DEB7698361E0CE0180
:1006E00001960E94270381E090E00F90DF91CF9167
:1006F0000895089580E090E00895CF93DF9383E01C
:100700000E94C101EC0180913101811119C0C130F9
:10071000D105B1F485E00E94C1019C019091A60130
:100720002115310529F4992359F01092A60108C02A
:100730002130310529F4911103C081E08093A60195
:10074000C09331012091A6018091AA019091AB0143
:10075000211102C0019701C001969093AB018093D3
:10076000AA01DF91CF910895CF93DF9382E00E9499
:10077000C101EC0180913001811119C0C130D10556
:10078000B1F484E00E94C1019C019091A701211560
:10079000310529F4992359F01092A70108C021309E
:1007A000310529F4911103C081E08093A701C09322
:1007B00030012091A7018091AC019091AD012111F0
:1007C00002C0019601C001979093AD018093AC01E6
:1007D000DF91CF9108950E94AD091F920F920FB63D
:1007E0000F9211242F933F934F935F936F937F93B7
:1007F0008F939F93AF93BF93EF93FF9384E292E025
:100800000E94FD00FF91EF91BF91AF919F918F9159
:100810007F916F915F914F913F912F910F900FBEFC
:100820000F901F9018951F920F920FB60F921124E0
:100830002F938F939F93EF93FF93E0913402F09166
:1008400035028081E0913A02F0913B0282FD12C0B4
:10085000908180913D028F5F8F7320913E028217BD
:1008600051F0E0913D02F0E0EC5DFD4F958F8093FB
:100870003D0201C08081FF91EF919F918F912F9157
:100880000F900FBE0F901F9018951F920F920FB6EA
:100890000F9211242F933F938F939F93AF93BF9306
:1008A00080919E0190919F01A091A001B091A10122
:1008B00030919D0123E0230F2D3720F40196A11DD7
:1008C000B11D05C026E8230F0296A11DB11D20937E
:1008D0009D0180939E0190939F01A093A001B093EE
:1008E000A1018091A2019091A301A091A401B091D6
:1008F000A5010196A11DB11D8093A2019093A301B2
:10090000A093A401B093A501BF91AF919F918F9146
:100910003F912F910F900FBE0F901F9018951F922F
:100920000F920FB60F9211242F933F934F935F9323
:100930006F937F938F939F93AF93BF93EF93FF93A7
:10094000E0910201F09103010995FF91EF91BF91B0
:10095000AF919F918F917F916F915F914F913F9157
:100960002F910F900FBE0F901F9018951F920F920E
:100970000FB60F9211242F933F934F935F936F9372
:100980007F938F939F93AF93BF93EF93FF93E091E8
:100990000001F09101010995FF91EF91BF91AF9195
:1009A0009F918F917F916F915F914F913F912F9187
:1009B0000F900FBE0F901F9018951F920F920FB6B9
:1009C0000F9211242F933F934F935F936F937F93D5
:1009D0008F939F93AF93BF93EF93FF938091B90051
:1009E000887F803609F49CC068F5883209F45BC0C2
:1009F00090F4803109F454C038F4882309F4F2C02B
:100A0000883009F44DC0F2C0883109F44CC08032FE
:100A100009F45DC0EBC0803409F468C048F4803349
:100A200009F455C0883309F0E1C080937601D4C041
:100A3000803509F44FC0883509F45DC0883409F069
:100A4000D5C0D2C0883909F4C3C0A8F4883709F4E6
:100A500067C038F4883609F463C0803709F460C091
:100A6000C5C0883809F4B4C0803909F45FC0803843
:100A700009F0BCC05BC0803B09F484C038F4803A04
:100A800009F466C0883A09F47DC0B0C0803C09F41E
:100A9000A3C0883C09F4A0C0883B09F486C0A6C066
:100AA00080919C0110C090919B0180919A019817B0
:100AB00070F5E0919B0181E08E0F80939B01F0E047
:100AC000E658FE4F80818093BB0085EC82C0809306
:100AD00076018AC0E0919B0181E08E0F80939B019B
:100AE0008091BB00F0E0E658FE4F808390919B011F
:100AF00080919A016AC0E0919B0181E08E0F809302
:100B00009B018091BB00F0E0E658FE4F808380910E
:100B10007901811169C081E08093780184EA5DC028
:100B200083E08093770110927501CFCF809175019A
:100B3000803208F04DC0E091750181E08E0F809306
:100B400075018091BB00F0E0EB5AFE4F8083BDCF72
:100B500085EC8093BC001092770180917501803202
:100B600030F4E0917501F0E0EB5AFE4F1082609195
:100B7000750170E085E591E0E0E0F0E00995109204
:100B8000750134C084E08093770110925401109273
:100B90005301E0E0F0E0099580915301811105C017
:100BA00081E08093530110923301E091540181E080
:100BB0008E0F80935401F0E0ED5CFE4F80818093B6
:100BC000BB009091540180915301981708F47DCF98
:100BD00085E88093BC000AC085EC8093BC0010922D
:100BE000770104C0109276010E941D03FF91EF91DE
:100BF000BF91AF919F918F917F916F915F914F9135
:100C00003F912F910F900FBE0F901F901895E4E227
:100C1000F2E01382128288EE93E0A0E0B0E08483D9
:100C20009583A683B78320E131E03183208325ECCF
:100C300030E03587248724EC30E03787268720ECA6
:100C400030E0318B208B21EC30E0338B228B22EC97
:100C500030E0358B248B26EC30E0378B268B118EE1
:100C6000128E138E148EE1ECF2E0138212828483D2
:100C70009583A683B78382E291E091838083089570
:100C8000CF93DF9300D000D0CDB7DEB7789484B592
:100C9000826084BD84B5816084BD85B5826085BD78
:100CA00085B5816085BD80916E00816080936E0006
:100CB00010928100809181008260809381008091F8
:100CC00081008160809381008091800081608093A9
:100CD00080008091B10084608093B1008091B00069
:100CE00081608093B00080917A00846080937A0064
:100CF00080917A00826080937A0080917A0081608E
:100D000080937A0080917A00806880937A001092B4
:100D1000C10061E08DE00E94190281E08093A7018B
:100D20008093A6011092AD011092AC011092AB011C
:100D30001092AA0160E084E00E94190260E085E060
:100D40000E94190284EB93E09093010180930001CB
:100D5000809169008C7F816080936900E89A8DE7BB
:100D600093E0909303018093020180916900837F57
:100D7000846080936900E99A1092AE010E9410038A
:100D800060931502709316028093170290931802D5
:100D90001092A8011092A90161E08AE00E94190254
:100DA00061E08BE00E94190261E086E00E94190276
:100DB00061E087E00E94190260E070E08AE00E9432
:100DC000550260E070E08BE00E94550261E086E031
:100DD0000E94EA0161E087E00E94EA01E0913402AA
:100DE000F091350282E08083E0913002F09131028F
:100DF0001082E0913202F091330280E18083109200
:100E00003C02E0913802F091390286E08083E09163
:100E10003602F0913702808180618083E091360252
:100E2000F0913702808188608083E0913602F091F2
:100E30003702808180688083E0913602F09137022A
:100E400080818F7D808303E010E060E08DE00E9470
:100E5000EA010E94D90261E08DE00E94EA010E944D
:100E6000D9020150110989F760E08DE00E94EA0182
:100E700010921C0210921B021092B0011092AF014E
:100E80000E9410030E94F0086093200270932102D8
:100E900080932202909323020E94100310921E025C
:100EA00010921D0210921F020E9410030E94F0086F
:100EB0002091200230912102409122025091230280
:100EC0000E94830820E030E048EC51E40E947E0953
:100ED00018165CF480911F02811107C080911D02D9
:100EE00090911E02C3970CF0ECC00E941003009179
:100EF0001502109116022091170230911802DC01A0
:100F0000CB01801B910BA20BB30B853F9140A10538
:100F1000B10520F060E08DE00E94EA0184E292E0F9
:100F20000E94E700181619060CF0C1C084E292E096
:100F30000E94C50020911B0230911C02A9014F5F45
:100F40005F4F50931C0240931B02F901EF54FE4F78
:100F500080834230510509F58091B201082E000CC2
:100F6000990B982F88272091B101022E000C330B8A
:100F7000822B932B9C012D5F3F4F2730310528F4A6
:100F80009093B0018093AF0108C01092B00110920D
:100F9000AF0110921C0210921B028091AF01909140
:100FA000B001EE27FF27E81BF90BEE0FFF1FEC5FE8
:100FB000FE4F208131812E5F3F4F40911B025091A7
:100FC0001C024217530708F474C0009709F466C066
:100FD0008F3F2FEF920709F042C08091A9018093C3
:100FE0001A028091A8018093190261E08091B301F7
:100FF000863609F060E086E00E94EA0161E08091B7
:10100000B501863609F060E087E00E94EA01609150
:10101000B401062E000C770B8AE00E945502609105
:10102000B601062E000C770B8BE00E9455020E9441
:1010300010030E94F00860932002709321028093B5
:1010400022029093230280911D0290911E0201962C
:1010500090931E0280931D0210921F021FC00296E1
:10106000E9F42091AC013091AD018091AA019091F9
:10107000AB0139832A839B838C8344E050E0BE011B
:101080006F5F7F4F84E292E00E948C001092AD016E
:101090001092AC011092AB011092AA0110921C02A6
:1010A00010921B021092B0011092AF0102C00E9478
:1010B00010038091AE0181111092AE010E948E0149
:1010C000F3CE61E08DE00E94EA0110921C021092C2
:1010D0001B0260911A0270E08AE00E945502609142
:1010E000190270E08BE00E94550281E080931F029C
:1010F0000E941003609315027093160280931702EA
:1011000090931802F2CE5058BB27AA270E949B0842
:101110000C9444090E94360938F00E943D0920F0E1
:1011200039F49F3F19F426F40C9433090EF4E0953A
:10113000E7FB0C942D09E92F0E94550958F3BA17C3
:10114000620773078407950720F079F4A6F50C94DD
:1011500077090EF4E0950B2EBA2FA02D0B01B901E3
:1011600090010C01CA01A0011124FF27591B99F01D
:10117000593F50F4503E68F11A16F040A22F232F29
:10118000342F4427585FF3CF469537952795A79579
:10119000F0405395C9F77EF41F16BA0B620B730B20
:1011A000840BBAF09150A1F0FF0FBB1F661F771F91
:1011B000881FC2F70EC0BA0F621F731F841F48F446
:1011C000879577956795B795F7959E3F08F0B0CFCF
:1011D0009395880F08F09927EE0F979587950895B6
:1011E000E89409C097FB3EF49095809570956195C1
:1011F0007F4F8F4F9F4F9923A9F0F92F96E9BB2777
:101200009395F695879577956795B795F111F8CFF2
:10121000FAF4BB0F11F460FF1BC06F5F7F4F8F4F5D
:101220009F4F16C0882311F096E911C0772321F053
:101230009EE8872F762F05C0662371F096E8862FEB
:1012400070E060E02AF09A95660F771F881FDAF742
:10125000880F9695879597F9089597F99F6780E885
:1012600070E060E008959FEF80EC089500240A94F8
:101270001616170618060906089500240A94121671
:101280001306140605060895092E0394000C11F4A4
:10129000882352F0BB0F40F4BF2B11F460FF04C051
:1012A0006F5F7F4F8F4F9F4F089557FD9058440FAA
:1012B000551F59F05F3F71F04795880F97FB991FB5
:1012C00061F09F3F79F08795089512161306140672
:1012D000551FF2CF4695F1DF08C0161617061806FF
:1012E000991FF1CF86957105610508940895E894DA
:1012F000BB2766277727CB0197F908950E948309BA
:1013000008F48FEF0895990F0008550FAA0BE0E835
:10131000FEEF16161706E807F907C0F012161306B7
:10132000E407F50798F0621B730B840B950B39F4F7
:101330000A2661F0232B242B252B21F408950A265D
:1013400009F4A140A6958FEF811D811D0895EE0F30
:10135000FF1F0590F491E02D099481E090E0F8944E
:081360000C94B209F894FFCFD0
:101368001C031C030000040000000500000000002E
:101378001F018C00B6006C01E700C500D900000011
:10138800000068035D037A034F03560353035003B9
:00000001FF
