:100000000C9462000C94E4040C94BD040C948A00DB
:100010000C948A000C948A000C948A000C948A0038
:100020000C948A000C948A000C948A000C948A0028
:100030000C948A000C948A000C948A000C948A0018
:100040000C9473040C948A000C9441040C941B04CB
:100050000C948A000C948A000C948A000C948A00F8
:100060000C940B050C948A0000000000240027006B
:100070002A0000000000250028002B0000000000DE
:1000800023002600290004040404040404040202DA
:100090000202020203030303030301020408102007
:1000A0004080010204081020010204081020000012
:1000B0000008000201000003040700000000000027
:1000C0000000350611241FBECFEFD8E0DEBFCDBF44
:1000D00011E0A0E0B1E0E8ECF9E102C005900D927A
:1000E000A03BB107D9F723E0A0EBB1E001C01D921E
:1000F000A03BB207E1F710E0C2E6D0E004C02197D0
:10010000FE010E94ED09C136D107C9F70E946E06B3
:100110000C94E20C0C940000CF92DF92EF92FF92CD
:100120000F931F93CF93DF936C017A018B01C0E093
:10013000D0E0CE15DF0581F0D8016D918D01D6019B
:10014000ED91FC910190F081E02DC6010995892B7C
:1001500011F02196EECF7E01C701DF91CF911F9163
:100160000F91FF90EF90DF90CF900895FC01538D99
:10017000448D252F30E0842F90E0821B930B541781
:1001800010F0CF96089501970895FC01918D828D0E
:10019000981761F0828DDF01A80FB11D5D968C91DB
:1001A000928D9F5F9F73928F90E008958FEF9FEFE6
:1001B0000895FC01918D828D981731F0828DE80FA2
:1001C000F11D858D90E008958FEF9FEF0895FC015C
:1001D000918D228D892F90E0805C9F4F821B910929
:1001E0008F739927089587E093E00E94E70021E04C
:1001F000892B09F420E0822F0895FC01848DDF0112
:10020000A80FB11DA35ABF4F2C91848D90E0019689
:100210008F739927848FA689B7892C93A089B18978
:100220008C91837080648C93938D848D981306C019
:100230000288F389E02D80818F7D80830895EF927D
:10024000FF920F931F93CF93DF93EC0181E0888F90
:100250009B8D8C8D981305C0E889F989808185FD77
:1002600026C0F62E0B8D10E00F5F1F4F0F73112766
:10027000E02E8C8DE8120CC00FB607FCFACFE8898F
:10028000F989808185FFF5CFCE010E94FD00F1CF75
:100290008B8DFE01E80FF11DE35AFF4FF0829FB7EF
:1002A000F8940B8FEA89FB89808180620AC09FB72E
:1002B000F894EE89FF896083E889F98980818370E9
:1002C000806480839FBF81E090E0DF91CF911F9198
:1002D0000F91FF90EF900895CF93DF93EC01888DFD
:1002E0008823C9F0EA89FB89808185FD05C0A8893A
:1002F000B9898C9186FD0FC00FB607FCF5CF8081C0
:1003000085FFF2CFA889B9898C9185FFEDCFCE0109
:100310000E94FD00E7CFDF91CF91089580E090E04B
:10032000892B29F00E94F30081110C94000008959C
:10033000833081F028F4813099F08230A1F0089563
:100340008730A9F08830B9F08430D1F480918000F2
:100350008F7D03C0809180008F7780938000089507
:1003600084B58F7702C084B58F7D84BD0895809158
:10037000B0008F7703C08091B0008F7D8093B00074
:100380000895CF93DF93282F30E0F901E255FF4F16
:100390008491F901E656FF4FD491F901EA57FF4FD6
:1003A000C491CC2391F081110E949801EC2FF0E0D0
:1003B000EE0FFF1FE458FF4FA591B491EC91ED2390
:1003C00081E090E021F480E002C080E090E0DF91E5
:1003D000CF9108951F93CF93DF93282F30E0F90139
:1003E000E255FF4F8491F901E656FF4FD491F90190
:1003F000EA57FF4FC491CC23C1F0162F81110E9400
:100400009801EC2FF0E0EE0FFF1FEE58FF4FA59183
:10041000B4919FB7F894111104C08C91D095D82352
:1004200002C0EC91DE2BDC939FBFDF91CF911F9137
:100430000895CF93DF9390E0FC01E656FF4F24919F
:10044000FC01EA57FF4F8491882361F190E0880F07
:10045000991FFC01E859FF4FC591D491FC01EE585A
:10046000FF4FA591B491611109C09FB7F89488819D
:10047000209582238883EC912E230BC0623061F497
:100480009FB7F8948881322F309583238883EC912D
:100490002E2B2C939FBF06C08FB7F894E8812E2B8C
:1004A00028838FBFDF91CF9108951F93CF93DF9360
:1004B000182FEB0161E00E941902209711F460E00F
:1004C00004C0CF3FD10539F461E0812FDF91CF9196
:1004D0001F910C94EA01E12FF0E0E255FF4FE49107
:1004E000E330F9F048F4E130B9F0E230A1F584B539
:1004F000806284BDC8BD34C0E730E9F0E83019F14E
:10050000E43049F580918000806280938000D09330
:100510008B00C0938A0024C084B5806884BDC7BDA9
:100520001FC080918000806880938000D0938900F4
:10053000C093880015C08091B00080688093B0009F
:10054000C093B3000DC08091B00080628093B00072
:10055000C093B40005C0C038D1050CF0B5CFAFCF03
:10056000DF91CF911F9108953FB7F89480912202B7
:1005700090912302A0912402B091250226B5A89B58
:1005800005C02F3F19F00196A11DB11D3FBFBA2F25
:10059000A92F982F8827820F911DA11DB11DBC0185
:1005A000CD0142E0660F771F881F991F4A95D1F74A
:1005B00008958F929F92AF92BF92CF92DF92EF9267
:1005C000FF920E94B4024B015C0182E3C82ED12C41
:1005D000E12CF12C0E94B402DC01CB0188199909AD
:1005E000AA09BB09883E9340A105B10598F321E013
:1005F000C21AD108E108F10888EE880E83E0981E3F
:10060000A11CB11CC114D104E104F10419F7FF903D
:10061000EF90DF90CF90BF90AF909F908F90089514
:100620002FB7F89460911E0270911F0280912002F2
:10063000909121022FBF0895089585ED8093BC000D
:100640008091BC0084FDFCCF1092F7010895409189
:10065000D301262F30E0240F311D21323105DCF487
:100660002091F7012430C9F4FC0180E090E0861766
:1006700058F43091D3012191DC01AD54BE4FA30F4A
:10068000B11D2C930196F3CF8091D301680F609335
:10069000D30180E0089581E0089582E008950895EF
:1006A0008FEF9FEF08958FEF9FEF08958091B20134
:1006B00090E09195819591090895CF93DF93CB01B7
:1006C000EA01642F0E942703CE01DF91CF910895A4
:1006D000CF93DF931F92CDB7DEB7698361E0CE0180
:1006E00001960E94270381E090E00F90DF91CF9167
:1006F0000895089580E090E008951F93CF93DF93CD
:1007000011E0109330020E94100360932C0270934A
:100710002D0280932E0290932F0283E00E94C1014C
:10072000EC018091B101811118C0C130D105A9F44B
:1007300085E00E94C1019C0190912602211531059E
:1007400029F4992351F01092260207C02130310577
:1007500021F4911102C010932602C093B10120919F
:1007600026028091280290912902211102C001964F
:1007700001C001979093290280932802DF91CF91C5
:100780001F9108951F93CF93DF9311E010933002D0
:100790000E94100360932C0270932D0280932E020E
:1007A00090932F0282E00E94C101EC018091B00180
:1007B000811118C0C130D105A9F484E00E94C101A3
:1007C0009C01909127022115310529F4992351F0BC
:1007D0001092270207C02130310521F4911102C087
:1007E00010932702C093B0012091270280912A0222
:1007F00090912B02211102C0019601C001979093A4
:100800002B0280932A02DF91CF911F9108950097C8
:1008100069F0FC0101900020E9F73197AF01481B16
:10082000590BBC0187E093E00C948C0080E090E0D1
:1008300008950E94F3091F920F920FB60F92112490
:100840002F933F934F935F936F937F938F939F93D8
:10085000AF93BF93EF93FF9387E093E00E94FD0077
:10086000FF91EF91BF91AF919F918F917F916F9188
:100870005F914F913F912F910F900FBE0F901F905E
:1008800018951F920F920FB60F9211242F938F93EA
:100890009F93EF93FF93E0911703F09118038081EA
:1008A000E0911D03F0911E0382FD12C090818091A2
:1008B00020038F5F8F7320912103821751F0E09105
:1008C0002003F0E0E95FFC4F958F8093200301C087
:1008D0008081FF91EF919F918F912F910F900FBE8B
:1008E0000F901F9018951F920F920FB60F92112420
:1008F0002F933F938F939F93AF93BF9380911E024B
:1009000090911F02A0912002B091210230911D020E
:1009100023E0230F2D3720F40196A11DB11D05C042
:1009200026E8230F0296A11DB11D20931D0280937E
:100930001E0290931F02A0932002B0932102809187
:10094000220290912302A0912402B09125020196E7
:10095000A11DB11D8093220290932302A093240233
:10096000B0932502BF91AF919F918F913F912F91AD
:100970000F900FBE0F901F9018951F920F920FB6F9
:100980000F9211242F933F934F935F936F937F9315
:100990008F939F93AF93BF93EF93FF93E0910201E7
:1009A000F09103010995FF91EF91BF91AF919F9154
:1009B0008F917F916F915F914F913F912F910F9008
:1009C0000FBE0F901F9018951F920F920FB60F92A7
:1009D00011242F933F934F935F936F937F938F9344
:1009E0009F93AF93BF93EF93FF93E0910001F0913A
:1009F00001010995FF91EF91BF91AF919F918F9167
:100A00007F916F915F914F913F912F910F900FBE0A
:100A10000F901F9018951F920F920FB60F921124EE
:100A20002F933F934F935F936F937F938F939F93F6
:100A3000AF93BF93EF93FF938091B900887F803687
:100A400009F49CC068F5883209F45BC090F48031E9
:100A500009F454C038F4882309F4F2C0883009F44A
:100A60004DC0F2C0883109F44CC0803209F45DC039
:100A7000EBC0803409F468C048F4803309F455C0F1
:100A8000883309F0E1C08093F601D4C0803509F4C1
:100A90004FC0883509F45DC0883409F0D5C0D2C094
:100AA000883909F4C3C0A8F4883709F467C038F45A
:100AB000883609F463C0803709F460C0C5C088383F
:100AC00009F4B4C0803909F45FC0803809F0BCC0B3
:100AD0005BC0803B09F484C038F4803A09F466C0F6
:100AE000883A09F47DC0B0C0803C09F4A3C0883CBA
:100AF00009F4A0C0883B09F486C0A6C080911C02FE
:100B000010C090911B0280911A02981770F5E09125
:100B10001B0281E08E0F80931B02F0E0E650FE4F37
:100B200080818093BB0085EC82C08093F6018AC0EF
:100B3000E0911B0281E08E0F80931B028091BB002D
:100B4000F0E0E650FE4F808390911B0280911A02E4
:100B50006AC0E0911B0281E08E0F80931B0280919E
:100B6000BB00F0E0E650FE4F80838091F9018111D7
:100B700069C081E08093F80184EA5DC083E08093DE
:100B8000F7011092F501CFCF8091F501803208F086
:100B90004DC0E091F50181E08E0F8093F5018091C9
:100BA000BB00F0E0EB52FE4F8083BDCF85EC80931D
:100BB000BC001092F7018091F501803230F4E09191
:100BC000F501F0E0EB52FE4F10826091F50170E00C
:100BD00085ED91E0E0E0F0E009951092F50134C078
:100BE00084E08093F7011092D4011092D301E0E0E9
:100BF000F0E009958091D301811105C081E08093D7
:100C0000D3011092B301E091D40181E08E0F809363
:100C1000D401F0E0ED54FE4F80818093BB009091B1
:100C2000D4018091D301981708F47DCF85E8809393
:100C3000BC000AC085EC8093BC001092F70104C090
:100C40001092F6010E941D03FF91EF91BF91AF91A9
:100C50009F918F917F916F915F914F913F912F91D4
:100C60000F900FBE0F901F901895E7E0F3E01382EE
:100C7000128288EE93E0A0E0B0E084839583A6839F
:100C8000B78320E131E03183208325EC30E03587E4
:100C9000248724EC30E03787268720EC30E0318B46
:100CA000208B21EC30E0338B228B22EC30E0358B33
:100CB000248B26EC30E0378B268B118E128E138E10
:100CC000148EE4EAF3E01382128284839583A68370
:100CD000B78382E291E0918380830895789484B50C
:100CE000826084BD84B5816084BD85B5826085BD28
:100CF00085B5816085BD80916E00816080936E00B6
:100D000010928100809181008260809381008091A7
:100D10008100816080938100809180008160809358
:100D200080008091B10084608093B1008091B00018
:100D300081608093B00080917A00846080937A0013
:100D400080917A00826080937A0080917A0081603D
:100D500080937A0080917A00806880937A00109264
:100D6000C10061E08DE00E94190281E080932702BA
:100D70008093260210922B0210922A0210922902CE
:100D80001092280260E084E00E94190260E085E091
:100D90000E94190282EC93E090930101809300017C
:100DA000809169008C7F816080936900E89A8DE76B
:100DB00093E0909303018093020180916900837F07
:100DC000846080936900E99A8FEF9FEF90933202DD
:100DD00080933102109230020E94100360932C0223
:100DE00070932D0280932E0290932F0210929902FD
:100DF0001092980261E08AE00E94190261E08BE0A3
:100E00000E94190261E087E00E94190261E086E019
:100E10000E94190260E070E08AE00E94550260E0E2
:100E200070E08BE00E94550261E086E00E94EA01DA
:100E300061E087E00E94EA011092330210929A0268
:100E4000E0911703F091180382E08083E09113038F
:100E5000F09114031082E0911503F091160380E1E4
:100E6000808310921F03E0911B03F0911C0386E026
:100E70008083E0911903F0911A038081806180835F
:100E8000E0911903F0911A03808188608083E091DA
:100E90001903F0911A03808180688083E09119031F
:100EA000F0911A0380818F7D8083C3E0D0E060E001
:100EB0008DE00E94EA010E94D90261E08DE00E946B
:100EC000EA010E94D902219791F760E08DE00E942B
:100ED000EA0110920603109205031092A0021092EC
:100EE0009F0210929B0210929C0210929D021092FF
:100EF0009E0200E311E0C4E3D2E04FE5E42E41E0BE
:100F0000F42E51E9C52E51E0D52E87E093E00E94E2
:100F1000E700181619060CF092C087E093E00E94D3
:100F2000C5002091050330910603A9014F5F5F4F73
:100F30005093060340930503F901EF55FD4F80835D
:100F400041305105E9F48091A202082E000C990B62
:100F5000982F88272091A102022E000C330B822BA0
:100F6000932B9093A00280939F0291958195910974
:100F700004970CF486C01092A00210929F0281C0C8
:100F800080919F029091A002EE27FF27E81BF90BAA
:100F9000EE0FFF1FEC5FFE4F208131812E5F3F4F30
:100FA0004217530708F46DC0109206031092050310
:100FB000009709F38F3F2FEF920719F561E08091B9
:100FC000A302863609F060E086E00E94EA0161E053
:100FD0008091A502863609F060E087E00E94EA0170
:100FE0006091A402062E000C770B8AE00E94550245
:100FF0006091A602062E000C770B8BE00E94550232
:10100000BACF029609F0B7CFB0902A0260912B02B6
:1010100087E093E00E941F016B2D87E093E00E9420
:101020001F01B09028026091290287E093E00E949E
:101030001F016B2D87E093E00E941F019CCF0E944F
:1010400010030E94360920919B0230919C0240912E
:101050009D0250919E020E94C90820E030E04AE7BC
:1010600054E40E94C409181664F40E9410030E94FC
:10107000360960939B0270939C0280939D0290932B
:101080009E0280919A02882301F11F921F921F9263
:101090001F92809199021F928F93809198021F92C4
:1010A0008F931F930F93DF93CF930E94F80984E3EC
:1010B00092E00E94070410929A028DB79EB70C9698
:1010C0000FB6F8949EBF0FBE8DBF80913302882368
:1010D000D1F11F921F921F921F92809199021F922D
:1010E0008F93809198021F928F93FF92EF92DF93DC
:1010F000CF930E94F80984E392E00E9407048EE8EF
:1011000091E00E9407041F921F92809132028F93F8
:10111000809131028F93DF92CF92DF93CF930E9421
:10112000F80984E392E00E9407048EE891E00E94AF
:101130000704109233028DB79EB744960FB6F89409
:101140009EBF0FBE8DBF80913002882331F061E0D9
:101150008DE00E94EA01109230020E9410038090FC
:101160002C0290902D02A0902E02B0902F02DC0154
:10117000CB0188199909AA09BB09853F9140A105AE
:10118000B10520F060E08DE00E94EA010E948E012E
:10119000BCCE5058BB27AA270E94E1080C948A09AC
:1011A0000E947C0938F00E94830920F039F49F3FA7
:1011B00019F426F40C9479090EF4E095E7FB0C94ED
:1011C0007309E92F0E949B0958F3BA176207730746
:1011D0008407950720F079F4A6F50C94BD090EF468
:1011E000E0950B2EBA2FA02D0B01B90190010C0137
:1011F000CA01A0011124FF27591B99F0593F50F44F
:10120000503E68F11A16F040A22F232F342F4427A6
:10121000585FF3CF469537952795A795F04053959E
:10122000C9F77EF41F16BA0B620B730B840BBAF06E
:101230009150A1F0FF0FBB1F661F771F881FC2F7D9
:101240000EC0BA0F621F731F841F48F487957795ED
:101250006795B795F7959E3F08F0B0CF9395880FA7
:1012600008F09927EE0F979587950895E89409C09F
:1012700097FB3EF490958095709561957F4F8F4FC9
:101280009F4F9923A9F0F92F96E9BB279395F695DF
:10129000879577956795B795F111F8CFFAF4BB0F5D
:1012A00011F460FF1BC06F5F7F4F8F4F9F4F16C0C1
:1012B000882311F096E911C0772321F09EE8872F4B
:1012C000762F05C0662371F096E8862F70E060E007
:1012D0002AF09A95660F771F881FDAF7880F969580
:1012E000879597F9089597F99F6780E870E060E027
:1012F00008959FEF80EC089500240A9416161706AF
:1013000018060906089500240A94121613061406F6
:1013100005060895092E0394000C11F4882352F059
:10132000BB0F40F4BF2B11F460FF04C06F5F7F4F11
:101330008F4F9F4F089557FD9058440F551F59F0F8
:101340005F3F71F04795880F97FB991F61F09F3FB2
:1013500079F087950895121613061406551FF2CFDB
:101360004695F1DF08C0161617061806991FF1CF2B
:1013700086957105610508940895E894BB27662752
:101380007727CB0197F908950E94C90908F48FEFD8
:101390000895990F0008550FAA0BE0E8FEEF161606
:1013A0001706E807F907C0F012161306E407F50759
:1013B00098F0621B730B840B950B39F40A2661F0CD
:1013C000232B242B252B21F408950A2609F4A14070
:1013D000A6958FEF811D811D0895EE0FFF1F0590CB
:1013E000F491E02D099481E090E0F8940C94E20CE3
:1013F000AEE0B0E0EEEFF9E00C94B90C0D891E8977
:1014000086E08C831A8309838FEF9FE79E838D8309
:10141000AE01475E5F4F6F89788DCE0101960E94C5
:101420001A0AEF81F885E00FF11F10822E96E4E092
:101430000C94D50CABE0B0E0E0E2FAE00C94AB0C1D
:101440006C017B018A01FC0117821682838181FF76
:10145000CCC1CE0101963C01F6019381F70193FDC9
:10146000859193FF81917F01882309F4BAC1853268
:1014700039F493FD859193FF81917F01853229F4A1
:10148000B60190E00E94110CE7CF912C212C312C59
:10149000FFE1F315D8F08B3279F038F4803279F02F
:1014A0008332A1F4232D20611DC08D3261F0803381
:1014B00069F4232D216016C0832D8260382EE32D20
:1014C000E4603E2E2AC0F32DF8601DC037FC2DC00D
:1014D00020ED280F2A3040F08E32B9F436FC81C15D
:1014E000232D2064322E19C036FE06C08AE0989E55
:1014F000200D1124922E11C0EAE02E9E200D112401
:10150000222EF32DF0623F2E08C08C3621F4832D5D
:101510008068382E02C0883641F4F70193FD85912A
:1015200093FF81917F018111B3CF982F9F7D9554B7
:10153000933028F40C5F1F4F9FE399830DC08336CF
:1015400031F0833771F0833509F059C021C0F801BB
:10155000808189830E5F1F4F88248394912C5301CF
:1015600013C02801F2E04F0E511CF801A080B18099
:1015700036FE03C0692D70E002C06FEF7FEFC5013A
:101580000E94060C4C018201F32DFF773F2E16C0FE
:10159000280122E0420E511CF801A080B18036FEE5
:1015A00003C0692D70E002C06FEF7FEFC5010E949C
:1015B000FB0B4C01F32DF0683F2E820133FC1BC066
:1015C000822D90E088169906B0F4B60180E290E092
:1015D0000E94110C2A94F4CFF50137FC859137FE57
:1015E00081915F01B60190E00E94110C21102A94B4
:1015F00021E0821A91088114910471F7E8C08436C1
:1016000011F0893641F5F80137FE07C0608171811C
:10161000828193810C5F1F4F08C060817181072E0A
:10162000000C880B990B0E5F1F4FF32DFF763F2E9A
:1016300097FF09C090958095709561957F4F8F4F6A
:101640009F4FF0683F2E2AE030E0A3010E944D0C2E
:10165000882E861845C0853731F4232D2F7EB22E73
:101660002AE030E025C0932D997FB92E8F36C1F046
:1016700018F4883579F0B5C0803719F0883721F033
:10168000B0C0E92FE061BE2EB4FE0DC0FB2DF460AA
:10169000BF2E09C034FE0AC0292F2660B22E06C014
:1016A00028E030E005C020E130E002C020E132E077
:1016B000F801B7FE07C060817181828193810C5F60
:1016C0001F4F06C06081718180E090E00E5F1F4F68
:1016D000A3010E944D0C882E8618FB2DFF773F2E0C
:1016E00036FE0DC0232D2E7FA22E891458F434FE11
:1016F0000BC032FC09C0832D8E7EA82E05C0B82CED
:10170000A32C03C0B82C01C0B92CA4FE0FC0FE014D
:10171000E80DF11D8081803321F49A2D997EA92E48
:1017200009C0A2FE06C0B394B39404C08A2D867883
:1017300009F0B394A3FC11C0A0FE06C0B21488F453
:10174000280C922C9B180EC0B21460F4B60180E2F3
:1017500090E00E94110CB394F7CFB21418F42B1838
:1017600002C0982C212CA4FE10C0B60180E390E0AA
:101770000E94110CA2FE17C0A1FC03C088E790E0F4
:1017800002C088E590E0B6010CC08A2D867859F039
:10179000A1FE02C08BE201C080E2A7FC8DE2B6018F
:1017A00090E00E94110C891438F4B60180E390E0B7
:1017B0000E94110C9A94F7CF8A94F301E80DF11D61
:1017C0008081B60190E00E94110C8110F5CF22209B
:1017D00009F442CEB60180E290E00E94110C2A94F6
:1017E000F6CFF6018681978102C08FEF9FEF2B968F
:1017F000E2E10C94C70CFC010590615070400110AF
:10180000D8F7809590958E0F9F1F0895FC01615029
:10181000704001900110D8F7809590958E0F9F1F12
:1018200008950F931F93CF93DF93FB01238121FD35
:1018300003C08FEF9FEF2CC022FF16C04681578157
:10184000248135814217530744F4A081B1819D0161
:101850002F5F3F4F318320838C93268137812F5F09
:101860003F4F3783268314C08B01EC01FB010084BA
:10187000F185E02D0995892BE1F6D80116968D9119
:101880009C911797019617969C938E931697CE016D
:10189000DF91CF911F910F910895FA01AA27283067
:1018A00051F1203181F1E8946F936E7F6E5F7F4F2D
:1018B0008F4F9F4FAF4FB1E03ED0B4E03CD0670FA9
:1018C000781F891F9A1FA11D680F791F8A1F911DFC
:1018D000A11D6A0F711D811D911DA11D20D009F44C
:1018E00068943F912AE0269F11243019305D31938E
:1018F000DEF6CF010895462F4770405D4193B3E077
:101900000FD0C9F7F6CF462F4F70405D4A3318F01D
:10191000495D31FD4052419302D0A9F7EACFB4E0CE
:10192000A6959795879577956795BA95C9F7009786
:101930006105710508959B01AC010A2E0694579527
:10194000479537952795BA95C9F7620F731F841F7E
:10195000951FA01D08952F923F924F925F926F9214
:101960007F928F929F92AF92BF92CF92DF92EF922F
:10197000FF920F931F93CF93DF93CDB7DEB7CA1BB0
:10198000DB0B0FB6F894DEBF0FBECDBF09942A88DB
:10199000398848885F846E847D848C849B84AA8483
:1019A000B984C884DF80EE80FD800C811B81AA8110
:1019B000B981CE0FD11D0FB6F894DEBF0FBECDBFDB
:0819C000ED010895F894FFCF3A
:1019C8001C031C03000004000000050000000000C8
:1019D8001F018C00B6006C01E700C500D9000000AB
:1019E800000068035D037A034F0356035303500353
:1019F8006C50574D203D202564207250574D203D96
:101A0800202564202D2D2D206C50574D32203D204F
:101A18002564207250574D32203D2025640A006C01
:101A280050574D203D202564207250574D203D20B1
:101A3800256420616E64206C50574D32203D20256E
:101A480064207250574D32203D2025640A000D0A4B
:101A5800006D6F74436F756E74203D2025642C20D3
:101A68006D6F74436F756E7432203D2025640000DD
:00000001FF
